{
  "contractName": "Election",
  "abi": [
    {
      "inputs": [],
      "stateMutability": "nonpayable",
      "type": "constructor"
    },
    {
      "anonymous": false,
      "inputs": [],
      "name": "CreatedProposalEvent",
      "type": "event"
    },
    {
      "anonymous": false,
      "inputs": [],
      "name": "CreatedVoteEvent",
      "type": "event"
    },
    {
      "inputs": [],
      "name": "candidateCount",
      "outputs": [
        {
          "internalType": "uint256",
          "name": "",
          "type": "uint256"
        }
      ],
      "stateMutability": "view",
      "type": "function",
      "constant": true
    },
    {
      "inputs": [],
      "name": "proposalCount",
      "outputs": [
        {
          "internalType": "uint256",
          "name": "",
          "type": "uint256"
        }
      ],
      "stateMutability": "view",
      "type": "function",
      "constant": true
    },
    {
      "inputs": [],
      "name": "voterCount",
      "outputs": [
        {
          "internalType": "uint256",
          "name": "",
          "type": "uint256"
        }
      ],
      "stateMutability": "view",
      "type": "function",
      "constant": true
    },
    {
      "inputs": [
        {
          "internalType": "address",
          "name": "voterAddress",
          "type": "address"
        },
        {
          "internalType": "string",
          "name": "voterPrivateKey",
          "type": "string"
        },
        {
          "internalType": "string",
          "name": "voterImage",
          "type": "string"
        },
        {
          "internalType": "string",
          "name": "voterNameAndSurname",
          "type": "string"
        },
        {
          "internalType": "string",
          "name": "voterLocation",
          "type": "string"
        },
        {
          "internalType": "uint256",
          "name": "voterAge",
          "type": "uint256"
        }
      ],
      "name": "insertVoter",
      "outputs": [],
      "stateMutability": "payable",
      "type": "function",
      "payable": true
    },
    {
      "inputs": [
        {
          "internalType": "address",
          "name": "voterAddress",
          "type": "address"
        }
      ],
      "name": "getVoterIndexByAddress",
      "outputs": [
        {
          "internalType": "uint256",
          "name": "",
          "type": "uint256"
        }
      ],
      "stateMutability": "view",
      "type": "function",
      "constant": true
    },
    {
      "inputs": [
        {
          "internalType": "address",
          "name": "voterAddress",
          "type": "address"
        }
      ],
      "name": "getVoterNameAndSurnameByAddress",
      "outputs": [
        {
          "internalType": "string",
          "name": "",
          "type": "string"
        }
      ],
      "stateMutability": "view",
      "type": "function",
      "constant": true
    },
    {
      "inputs": [
        {
          "internalType": "address",
          "name": "voterAddress",
          "type": "address"
        }
      ],
      "name": "getVoterAddressByAddress",
      "outputs": [
        {
          "internalType": "address",
          "name": "",
          "type": "address"
        }
      ],
      "stateMutability": "view",
      "type": "function",
      "constant": true
    },
    {
      "inputs": [
        {
          "internalType": "address",
          "name": "voterAddress",
          "type": "address"
        }
      ],
      "name": "getVoterImageByAddress",
      "outputs": [
        {
          "internalType": "string",
          "name": "",
          "type": "string"
        }
      ],
      "stateMutability": "view",
      "type": "function",
      "constant": true
    },
    {
      "inputs": [
        {
          "internalType": "address",
          "name": "voterAddress",
          "type": "address"
        }
      ],
      "name": "getVoterLocationByAddress",
      "outputs": [
        {
          "internalType": "string",
          "name": "",
          "type": "string"
        }
      ],
      "stateMutability": "view",
      "type": "function",
      "constant": true
    },
    {
      "inputs": [
        {
          "internalType": "address",
          "name": "voterAddress",
          "type": "address"
        }
      ],
      "name": "getVoterAgeByAddress",
      "outputs": [
        {
          "internalType": "uint256",
          "name": "",
          "type": "uint256"
        }
      ],
      "stateMutability": "view",
      "type": "function",
      "constant": true
    },
    {
      "inputs": [
        {
          "internalType": "address",
          "name": "voterAddress",
          "type": "address"
        }
      ],
      "name": "getVoterVoteStatusByAddress",
      "outputs": [
        {
          "internalType": "bool",
          "name": "",
          "type": "bool"
        }
      ],
      "stateMutability": "view",
      "type": "function",
      "constant": true
    },
    {
      "inputs": [
        {
          "internalType": "address",
          "name": "voterAddress",
          "type": "address"
        }
      ],
      "name": "getVoterVoteReferendumStatusByAddress",
      "outputs": [
        {
          "internalType": "bool",
          "name": "",
          "type": "bool"
        }
      ],
      "stateMutability": "view",
      "type": "function",
      "constant": true
    },
    {
      "inputs": [
        {
          "internalType": "uint256",
          "name": "index",
          "type": "uint256"
        }
      ],
      "name": "getVoterPrivateKey",
      "outputs": [
        {
          "internalType": "string",
          "name": "",
          "type": "string"
        }
      ],
      "stateMutability": "view",
      "type": "function",
      "constant": true
    },
    {
      "inputs": [
        {
          "internalType": "uint256",
          "name": "index",
          "type": "uint256"
        }
      ],
      "name": "getVoterVoteStatus",
      "outputs": [
        {
          "internalType": "bool",
          "name": "",
          "type": "bool"
        }
      ],
      "stateMutability": "view",
      "type": "function",
      "constant": true
    },
    {
      "inputs": [
        {
          "internalType": "uint256",
          "name": "index",
          "type": "uint256"
        }
      ],
      "name": "getVoterVoteReferendumStatus",
      "outputs": [
        {
          "internalType": "bool",
          "name": "",
          "type": "bool"
        }
      ],
      "stateMutability": "view",
      "type": "function",
      "constant": true
    },
    {
      "inputs": [
        {
          "internalType": "uint256",
          "name": "index",
          "type": "uint256"
        }
      ],
      "name": "getVoterAddress",
      "outputs": [
        {
          "internalType": "address",
          "name": "",
          "type": "address"
        }
      ],
      "stateMutability": "view",
      "type": "function",
      "constant": true
    },
    {
      "inputs": [
        {
          "internalType": "uint256",
          "name": "index",
          "type": "uint256"
        }
      ],
      "name": "getVoterNameAndSurname",
      "outputs": [
        {
          "internalType": "string",
          "name": "",
          "type": "string"
        }
      ],
      "stateMutability": "view",
      "type": "function",
      "constant": true
    },
    {
      "inputs": [
        {
          "internalType": "uint256",
          "name": "index",
          "type": "uint256"
        }
      ],
      "name": "getVoterImage",
      "outputs": [
        {
          "internalType": "string",
          "name": "",
          "type": "string"
        }
      ],
      "stateMutability": "view",
      "type": "function",
      "constant": true
    },
    {
      "inputs": [
        {
          "internalType": "uint256",
          "name": "index",
          "type": "uint256"
        }
      ],
      "name": "getVoterLocation",
      "outputs": [
        {
          "internalType": "string",
          "name": "",
          "type": "string"
        }
      ],
      "stateMutability": "view",
      "type": "function",
      "constant": true
    },
    {
      "inputs": [
        {
          "internalType": "uint256",
          "name": "index",
          "type": "uint256"
        }
      ],
      "name": "getVoterAge",
      "outputs": [
        {
          "internalType": "uint256",
          "name": "",
          "type": "uint256"
        }
      ],
      "stateMutability": "view",
      "type": "function",
      "constant": true
    },
    {
      "inputs": [],
      "name": "getVoterCount",
      "outputs": [
        {
          "internalType": "uint256",
          "name": "count",
          "type": "uint256"
        }
      ],
      "stateMutability": "view",
      "type": "function",
      "constant": true
    },
    {
      "inputs": [
        {
          "internalType": "string",
          "name": "_image",
          "type": "string"
        },
        {
          "internalType": "string",
          "name": "_pdfLink",
          "type": "string"
        },
        {
          "internalType": "string",
          "name": "_nameAndSurname",
          "type": "string"
        },
        {
          "internalType": "string",
          "name": "_slogan",
          "type": "string"
        },
        {
          "internalType": "string",
          "name": "_party",
          "type": "string"
        }
      ],
      "name": "addCandidate",
      "outputs": [],
      "stateMutability": "nonpayable",
      "type": "function"
    },
    {
      "inputs": [
        {
          "internalType": "uint256",
          "name": "index",
          "type": "uint256"
        }
      ],
      "name": "getImage",
      "outputs": [
        {
          "internalType": "string",
          "name": "",
          "type": "string"
        }
      ],
      "stateMutability": "view",
      "type": "function",
      "constant": true
    },
    {
      "inputs": [
        {
          "internalType": "uint256",
          "name": "index",
          "type": "uint256"
        }
      ],
      "name": "getPdfLink",
      "outputs": [
        {
          "internalType": "string",
          "name": "",
          "type": "string"
        }
      ],
      "stateMutability": "view",
      "type": "function",
      "constant": true
    },
    {
      "inputs": [
        {
          "internalType": "uint256",
          "name": "index",
          "type": "uint256"
        }
      ],
      "name": "getCandidate",
      "outputs": [
        {
          "internalType": "string",
          "name": "",
          "type": "string"
        }
      ],
      "stateMutability": "view",
      "type": "function",
      "constant": true
    },
    {
      "inputs": [
        {
          "internalType": "uint256",
          "name": "index",
          "type": "uint256"
        }
      ],
      "name": "getSlogan",
      "outputs": [
        {
          "internalType": "string",
          "name": "",
          "type": "string"
        }
      ],
      "stateMutability": "view",
      "type": "function",
      "constant": true
    },
    {
      "inputs": [
        {
          "internalType": "uint256",
          "name": "index",
          "type": "uint256"
        }
      ],
      "name": "getParty",
      "outputs": [
        {
          "internalType": "string",
          "name": "",
          "type": "string"
        }
      ],
      "stateMutability": "view",
      "type": "function",
      "constant": true
    },
    {
      "inputs": [
        {
          "internalType": "uint256",
          "name": "index",
          "type": "uint256"
        }
      ],
      "name": "getVotes",
      "outputs": [
        {
          "internalType": "uint256",
          "name": "",
          "type": "uint256"
        }
      ],
      "stateMutability": "view",
      "type": "function",
      "constant": true
    },
    {
      "inputs": [
        {
          "internalType": "uint256",
          "name": "_start",
          "type": "uint256"
        },
        {
          "internalType": "uint256",
          "name": "_end",
          "type": "uint256"
        }
      ],
      "name": "setStartEndTime",
      "outputs": [],
      "stateMutability": "nonpayable",
      "type": "function"
    },
    {
      "inputs": [],
      "name": "getStartTime",
      "outputs": [
        {
          "internalType": "uint256",
          "name": "",
          "type": "uint256"
        }
      ],
      "stateMutability": "view",
      "type": "function",
      "constant": true
    },
    {
      "inputs": [],
      "name": "getEndTime",
      "outputs": [
        {
          "internalType": "uint256",
          "name": "",
          "type": "uint256"
        }
      ],
      "stateMutability": "view",
      "type": "function",
      "constant": true
    },
    {
      "inputs": [
        {
          "internalType": "string",
          "name": "title",
          "type": "string"
        }
      ],
      "name": "addProposal",
      "outputs": [],
      "stateMutability": "nonpayable",
      "type": "function"
    },
    {
      "inputs": [
        {
          "internalType": "uint256",
          "name": "index",
          "type": "uint256"
        }
      ],
      "name": "getProposalTitle",
      "outputs": [
        {
          "internalType": "string",
          "name": "",
          "type": "string"
        }
      ],
      "stateMutability": "view",
      "type": "function",
      "constant": true
    },
    {
      "inputs": [
        {
          "internalType": "uint256",
          "name": "index",
          "type": "uint256"
        }
      ],
      "name": "getProposalPos",
      "outputs": [
        {
          "internalType": "uint256",
          "name": "",
          "type": "uint256"
        }
      ],
      "stateMutability": "view",
      "type": "function",
      "constant": true
    },
    {
      "inputs": [
        {
          "internalType": "uint256",
          "name": "index",
          "type": "uint256"
        }
      ],
      "name": "getProposalNeg",
      "outputs": [
        {
          "internalType": "uint256",
          "name": "",
          "type": "uint256"
        }
      ],
      "stateMutability": "view",
      "type": "function",
      "constant": true
    },
    {
      "inputs": [
        {
          "internalType": "uint256",
          "name": "candidateID",
          "type": "uint256"
        }
      ],
      "name": "vote",
      "outputs": [],
      "stateMutability": "nonpayable",
      "type": "function"
    },
    {
      "inputs": [
        {
          "internalType": "uint256",
          "name": "voteValue",
          "type": "uint256"
        }
      ],
      "name": "voteProposal",
      "outputs": [],
      "stateMutability": "nonpayable",
      "type": "function"
    }
  ],
  "bytecode": "0x608060405234801561001057600080fd5b50735fcb3aa65034746ea3872c9790d0e291a0b49ccd6000806101000a81548173ffffffffffffffffffffffffffffffffffffffff021916908373ffffffffffffffffffffffffffffffffffffffff1602179055506000600181905550600060028190555060006003819055506130108061008c6000396000f3fe6080604052600436106102195760003560e01c8063807896d511610123578063c514d566116100ab578063d83b2c051161006f578063d83b2c05146108df578063da35c6641461091c578063de621a4d14610947578063f98e2f6614610984578063ff981099146109c157610219565b8063c514d566146107c0578063c828371e146107fd578063cbba67f214610828578063d005b3bf14610865578063d831947d146108a257610219565b80639627f77a116100f25780639627f77a146106a1578063981dd9a9146106de578063a9a981a31461071b578063b54d4cac14610746578063b985a2241461078357610219565b8063807896d5146105d55780638fb66967146105fe578063945ddfb91461063b578063947582181461066457610219565b806335b8e820116101a65780634fa4c81c116101755780634fa4c81c146104c55780635637a7fa146105025780636eeb3fd31461053f57806370cbc7021461057c57806372ddebf0146105b957610219565b806335b8e820146103f557806337a27ca31461043257806342169e481461046f578063439f5ac21461049a57610219565b80630e626e7c116101ed5780630e626e7c146102fe57806311174a291461033b5780632607aafa146103665780632fdae3c5146103a357806332da1329146103cc57610219565b8062e285ba1461021e5780630121b93f1461025b578063052c688f146102845780630962d7ac146102c1575b600080fd5b34801561022a57600080fd5b5061024560048036038101906102409190612bf8565b6109fe565b6040516102529190612cf9565b60405180910390f35b34801561026757600080fd5b50610282600480360381019061027d9190612bf8565b610b33565b005b34801561029057600080fd5b506102ab60048036038101906102a69190612bf8565b610d00565b6040516102b89190612cf9565b60405180910390f35b3480156102cd57600080fd5b506102e860048036038101906102e391906129b6565b610e00565b6040516102f59190612cf9565b60405180910390f35b34801561030a57600080fd5b5061032560048036038101906103209190612bf8565b610ed4565b6040516103329190612cf9565b60405180910390f35b34801561034757600080fd5b50610350611009565b60405161035d9190612d1b565b60405180910390f35b34801561037257600080fd5b5061038d60048036038101906103889190612bf8565b61106c565b60405161039a9190612cf9565b60405180910390f35b3480156103af57600080fd5b506103ca60048036038101906103c59190612ac8565b61116c565b005b3480156103d857600080fd5b506103f360048036038101906103ee9190612c21565b61125d565b005b34801561040157600080fd5b5061041c60048036038101906104179190612bf8565b6112c7565b6040516104299190612cf9565b60405180910390f35b34801561043e57600080fd5b50610459600480360381019061045491906129b6565b6113c7565b6040516104669190612d1b565b60405180910390f35b34801561047b57600080fd5b50610484611413565b6040516104919190612d1b565b60405180910390f35b3480156104a657600080fd5b506104af611419565b6040516104bc9190612d1b565b60405180910390f35b3480156104d157600080fd5b506104ec60048036038101906104e791906129b6565b61147c565b6040516104f99190612cf9565b60405180910390f35b34801561050e57600080fd5b5061052960048036038101906105249190612bf8565b611550565b6040516105369190612cde565b60405180910390f35b34801561054b57600080fd5b5061056660048036038101906105619190612bf8565b61160b565b6040516105739190612cf9565b60405180910390f35b34801561058857600080fd5b506105a3600480360381019061059e91906129b6565b611740565b6040516105b09190612cde565b60405180910390f35b6105d360048036038101906105ce91906129df565b6117f2565b005b3480156105e157600080fd5b506105fc60048036038101906105f79190612bf8565b611b5e565b005b34801561060a57600080fd5b50610625600480360381019061062091906129b6565b611d97565b6040516106329190612d1b565b60405180910390f35b34801561064757600080fd5b50610662600480360381019061065d9190612b09565b611de3565b005b34801561067057600080fd5b5061068b60048036038101906106869190612bf8565b611f53565b6040516106989190612cf9565b60405180910390f35b3480156106ad57600080fd5b506106c860048036038101906106c39190612bf8565b612053565b6040516106d59190612cf9565b60405180910390f35b3480156106ea57600080fd5b5061070560048036038101906107009190612bf8565b612188565b6040516107129190612d1b565b60405180910390f35b34801561072757600080fd5b506107306121a8565b60405161073d9190612d1b565b60405180910390f35b34801561075257600080fd5b5061076d60048036038101906107689190612bf8565b6121ae565b60405161077a9190612cde565b60405180910390f35b34801561078f57600080fd5b506107aa60048036038101906107a591906129b6565b612269565b6040516107b79190612cf9565b60405180910390f35b3480156107cc57600080fd5b506107e760048036038101906107e29190612bf8565b61233d565b6040516107f49190612d1b565b60405180910390f35b34801561080957600080fd5b5061081261235d565b60405161081f9190612d1b565b60405180910390f35b34801561083457600080fd5b5061084f600480360381019061084a9190612bf8565b6123c0565b60405161085c9190612cf9565b60405180910390f35b34801561087157600080fd5b5061088c600480360381019061088791906129b6565b612468565b6040516108999190612cde565b60405180910390f35b3480156108ae57600080fd5b506108c960048036038101906108c49190612bf8565b61251a565b6040516108d69190612d1b565b60405180910390f35b3480156108eb57600080fd5b5061090660048036038101906109019190612bf8565b6125c8565b6040516109139190612cc3565b60405180910390f35b34801561092857600080fd5b50610931612696565b60405161093e9190612d1b565b60405180910390f35b34801561095357600080fd5b5061096e60048036038101906109699190612bf8565b61269c565b60405161097b9190612cf9565b60405180910390f35b34801561099057600080fd5b506109ab60048036038101906109a691906129b6565b61279c565b6040516109b89190612cc3565b60405180910390f35b3480156109cd57600080fd5b506109e860048036038101906109e39190612bf8565b612808565b6040516109f59190612d1b565b60405180910390f35b606060008054906101000a900473ffffffffffffffffffffffffffffffffffffffff1673ffffffffffffffffffffffffffffffffffffffff163373ffffffffffffffffffffffffffffffffffffffff1614610a5857600080fd5b60098281548110610a92577f4e487b7100000000000000000000000000000000000000000000000000000000600052603260045260246000fd5b90600052602060002090600802016002018054610aae90612e93565b80601f0160208091040260200160405190810160405280929190818152602001828054610ada90612e93565b8015610b275780601f10610afc57610100808354040283529160200191610b27565b820191906000526020600020905b815481529060010190602001808311610b0a57829003601f168201915b50505050509050919050565b600454421015610b4257600080fd5b600554421115610b5157600080fd5b60008054906101000a900473ffffffffffffffffffffffffffffffffffffffff1673ffffffffffffffffffffffffffffffffffffffff163373ffffffffffffffffffffffffffffffffffffffff161415610baa57600080fd5b60001515600860003373ffffffffffffffffffffffffffffffffffffffff1673ffffffffffffffffffffffffffffffffffffffff16815260200190815260200160002060070160009054906101000a900460ff16151514610c0a57600080fd5b600660008281526020019081526020016000206006016000815480929190610c3190612ec5565b91905055506001600860003373ffffffffffffffffffffffffffffffffffffffff1673ffffffffffffffffffffffffffffffffffffffff16815260200190815260200160002060070160006101000a81548160ff02191690831515021790555060016009610c9e336113c7565b81548110610cd5577f4e487b7100000000000000000000000000000000000000000000000000000000600052603260045260246000fd5b906000526020600020906008020160070160006101000a81548160ff02191690831515021790555050565b606060008054906101000a900473ffffffffffffffffffffffffffffffffffffffff1673ffffffffffffffffffffffffffffffffffffffff163373ffffffffffffffffffffffffffffffffffffffff1614610d5a57600080fd5b600660008381526020019081526020016000206002018054610d7b90612e93565b80601f0160208091040260200160405190810160405280929190818152602001828054610da790612e93565b8015610df45780601f10610dc957610100808354040283529160200191610df4565b820191906000526020600020905b815481529060010190602001808311610dd757829003601f168201915b50505050509050919050565b6060600860008373ffffffffffffffffffffffffffffffffffffffff1673ffffffffffffffffffffffffffffffffffffffff1681526020019081526020016000206003018054610e4f90612e93565b80601f0160208091040260200160405190810160405280929190818152602001828054610e7b90612e93565b8015610ec85780601f10610e9d57610100808354040283529160200191610ec8565b820191906000526020600020905b815481529060010190602001808311610eab57829003601f168201915b50505050509050919050565b606060008054906101000a900473ffffffffffffffffffffffffffffffffffffffff1673ffffffffffffffffffffffffffffffffffffffff163373ffffffffffffffffffffffffffffffffffffffff1614610f2e57600080fd5b60098281548110610f68577f4e487b7100000000000000000000000000000000000000000000000000000000600052603260045260246000fd5b90600052602060002090600802016005018054610f8490612e93565b80601f0160208091040260200160405190810160405280929190818152602001828054610fb090612e93565b8015610ffd5780601f10610fd257610100808354040283529160200191610ffd565b820191906000526020600020905b815481529060010190602001808311610fe057829003601f168201915b50505050509050919050565b60008060009054906101000a900473ffffffffffffffffffffffffffffffffffffffff1673ffffffffffffffffffffffffffffffffffffffff163373ffffffffffffffffffffffffffffffffffffffff161461106457600080fd5b600254905090565b606060008054906101000a900473ffffffffffffffffffffffffffffffffffffffff1673ffffffffffffffffffffffffffffffffffffffff163373ffffffffffffffffffffffffffffffffffffffff16146110c657600080fd5b6006600083815260200190815260200160002060010180546110e790612e93565b80601f016020809104026020016040519081016040528092919081815260200182805461111390612e93565b80156111605780601f1061113557610100808354040283529160200191611160565b820191906000526020600020905b81548152906001019060200180831161114357829003601f168201915b50505050509050919050565b60008054906101000a900473ffffffffffffffffffffffffffffffffffffffff1673ffffffffffffffffffffffffffffffffffffffff163373ffffffffffffffffffffffffffffffffffffffff16146111c457600080fd5b600060405180608001604052806003548152602001838152602001600081526020016000815250905080600760006003548152602001908152602001600020600082015181600001556020820151816001019080519060200190611229929190612881565b5060408201518160020155606082015181600301559050506003600081548092919061125490612ec5565b91905055505050565b60008054906101000a900473ffffffffffffffffffffffffffffffffffffffff1673ffffffffffffffffffffffffffffffffffffffff163373ffffffffffffffffffffffffffffffffffffffff16146112b557600080fd5b81600481905550806005819055505050565b606060008054906101000a900473ffffffffffffffffffffffffffffffffffffffff1673ffffffffffffffffffffffffffffffffffffffff163373ffffffffffffffffffffffffffffffffffffffff161461132157600080fd5b60066000838152602001908152602001600020600301805461134290612e93565b80601f016020809104026020016040519081016040528092919081815260200182805461136e90612e93565b80156113bb5780601f10611390576101008083540402835291602001916113bb565b820191906000526020600020905b81548152906001019060200180831161139e57829003601f168201915b50505050509050919050565b6000600860008373ffffffffffffffffffffffffffffffffffffffff1673ffffffffffffffffffffffffffffffffffffffff168152602001908152602001600020600001549050919050565b60025481565b60008060009054906101000a900473ffffffffffffffffffffffffffffffffffffffff1673ffffffffffffffffffffffffffffffffffffffff163373ffffffffffffffffffffffffffffffffffffffff161461147457600080fd5b600554905090565b6060600860008373ffffffffffffffffffffffffffffffffffffffff1673ffffffffffffffffffffffffffffffffffffffff16815260200190815260200160002060050180546114cb90612e93565b80601f01602080910402602001604051908101604052809291908181526020018280546114f790612e93565b80156115445780601f1061151957610100808354040283529160200191611544565b820191906000526020600020905b81548152906001019060200180831161152757829003601f168201915b50505050509050919050565b60008060009054906101000a900473ffffffffffffffffffffffffffffffffffffffff1673ffffffffffffffffffffffffffffffffffffffff163373ffffffffffffffffffffffffffffffffffffffff16146115ab57600080fd5b600982815481106115e5577f4e487b7100000000000000000000000000000000000000000000000000000000600052603260045260246000fd5b906000526020600020906008020160070160019054906101000a900460ff169050919050565b606060008054906101000a900473ffffffffffffffffffffffffffffffffffffffff1673ffffffffffffffffffffffffffffffffffffffff163373ffffffffffffffffffffffffffffffffffffffff161461166557600080fd5b6009828154811061169f577f4e487b7100000000000000000000000000000000000000000000000000000000600052603260045260246000fd5b906000526020600020906008020160030180546116bb90612e93565b80601f01602080910402602001604051908101604052809291908181526020018280546116e790612e93565b80156117345780601f1061170957610100808354040283529160200191611734565b820191906000526020600020905b81548152906001019060200180831161171757829003601f168201915b50505050509050919050565b60008060009054906101000a900473ffffffffffffffffffffffffffffffffffffffff1673ffffffffffffffffffffffffffffffffffffffff163373ffffffffffffffffffffffffffffffffffffffff161461179b57600080fd5b600860008373ffffffffffffffffffffffffffffffffffffffff1673ffffffffffffffffffffffffffffffffffffffff16815260200190815260200160002060070160019054906101000a900460ff169050919050565b60008054906101000a900473ffffffffffffffffffffffffffffffffffffffff1673ffffffffffffffffffffffffffffffffffffffff163373ffffffffffffffffffffffffffffffffffffffff161461184a57600080fd5b600060405180610120016040528060025481526020018873ffffffffffffffffffffffffffffffffffffffff16815260200187815260200186815260200185815260200184815260200183815260200160001515815260200160001515815250905060098190806001815401808255809150506001900390600052602060002090600802016000909190919091506000820151816000015560208201518160010160006101000a81548173ffffffffffffffffffffffffffffffffffffffff021916908373ffffffffffffffffffffffffffffffffffffffff1602179055506040820151816002019080519060200190611945929190612881565b506060820151816003019080519060200190611962929190612881565b50608082015181600401908051906020019061197f929190612881565b5060a082015181600501908051906020019061199c929190612881565b5060c0820151816006015560e08201518160070160006101000a81548160ff0219169083151502179055506101008201518160070160016101000a81548160ff021916908315150217905550505080600860008973ffffffffffffffffffffffffffffffffffffffff1673ffffffffffffffffffffffffffffffffffffffff1681526020019081526020016000206000820151816000015560208201518160010160006101000a81548173ffffffffffffffffffffffffffffffffffffffff021916908373ffffffffffffffffffffffffffffffffffffffff1602179055506040820151816002019080519060200190611a97929190612881565b506060820151816003019080519060200190611ab4929190612881565b506080820151816004019080519060200190611ad1929190612881565b5060a0820151816005019080519060200190611aee929190612881565b5060c0820151816006015560e08201518160070160006101000a81548160ff0219169083151502179055506101008201518160070160016101000a81548160ff02191690831515021790555090505060026000815480929190611b5090612ec5565b919050555050505050505050565b600454421015611b6d57600080fd5b600554421115611b7c57600080fd5b60008054906101000a900473ffffffffffffffffffffffffffffffffffffffff1673ffffffffffffffffffffffffffffffffffffffff163373ffffffffffffffffffffffffffffffffffffffff161415611bd557600080fd5b60001515600860003373ffffffffffffffffffffffffffffffffffffffff1673ffffffffffffffffffffffffffffffffffffffff16815260200190815260200160002060070160019054906101000a900460ff16151514611c3557600080fd5b6001811480611c445750600281145b80611c4f5750600381145b611c5857600080fd5b6001811415611c94576001600760008081526020019081526020016000206002016000828254611c889190612db3565b92505081905550611ccd565b6002811415611ccc576001600760008081526020019081526020016000206003016000828254611cc49190612db3565b925050819055505b5b6001600860003373ffffffffffffffffffffffffffffffffffffffff1673ffffffffffffffffffffffffffffffffffffffff16815260200190815260200160002060070160016101000a81548160ff02191690831515021790555060016009611d35336113c7565b81548110611d6c577f4e487b7100000000000000000000000000000000000000000000000000000000600052603260045260246000fd5b906000526020600020906008020160070160016101000a81548160ff02191690831515021790555050565b6000600860008373ffffffffffffffffffffffffffffffffffffffff1673ffffffffffffffffffffffffffffffffffffffff168152602001908152602001600020600601549050919050565b60008054906101000a900473ffffffffffffffffffffffffffffffffffffffff1673ffffffffffffffffffffffffffffffffffffffff163373ffffffffffffffffffffffffffffffffffffffff1614611e3b57600080fd5b60006040518060e0016040528060015481526020018781526020018681526020018581526020018481526020018381526020016000815250905080600660006001548152602001908152602001600020600082015181600001556020820151816001019080519060200190611eb1929190612881565b506040820151816002019080519060200190611ece929190612881565b506060820151816003019080519060200190611eeb929190612881565b506080820151816004019080519060200190611f08929190612881565b5060a0820151816005019080519060200190611f25929190612881565b5060c0820151816006015590505060016000815480929190611f4690612ec5565b9190505550505050505050565b606060008054906101000a900473ffffffffffffffffffffffffffffffffffffffff1673ffffffffffffffffffffffffffffffffffffffff163373ffffffffffffffffffffffffffffffffffffffff1614611fad57600080fd5b600660008381526020019081526020016000206005018054611fce90612e93565b80601f0160208091040260200160405190810160405280929190818152602001828054611ffa90612e93565b80156120475780601f1061201c57610100808354040283529160200191612047565b820191906000526020600020905b81548152906001019060200180831161202a57829003601f168201915b50505050509050919050565b606060008054906101000a900473ffffffffffffffffffffffffffffffffffffffff1673ffffffffffffffffffffffffffffffffffffffff163373ffffffffffffffffffffffffffffffffffffffff16146120ad57600080fd5b600982815481106120e7577f4e487b7100000000000000000000000000000000000000000000000000000000600052603260045260246000fd5b9060005260206000209060080201600401805461210390612e93565b80601f016020809104026020016040519081016040528092919081815260200182805461212f90612e93565b801561217c5780601f106121515761010080835404028352916020019161217c565b820191906000526020600020905b81548152906001019060200180831161215f57829003601f168201915b50505050509050919050565b600060076000838152602001908152602001600020600201549050919050565b60015481565b60008060009054906101000a900473ffffffffffffffffffffffffffffffffffffffff1673ffffffffffffffffffffffffffffffffffffffff163373ffffffffffffffffffffffffffffffffffffffff161461220957600080fd5b60098281548110612243577f4e487b7100000000000000000000000000000000000000000000000000000000600052603260045260246000fd5b906000526020600020906008020160070160009054906101000a900460ff169050919050565b6060600860008373ffffffffffffffffffffffffffffffffffffffff1673ffffffffffffffffffffffffffffffffffffffff16815260200190815260200160002060040180546122b890612e93565b80601f01602080910402602001604051908101604052809291908181526020018280546122e490612e93565b80156123315780601f1061230657610100808354040283529160200191612331565b820191906000526020600020905b81548152906001019060200180831161231457829003601f168201915b50505050509050919050565b600060076000838152602001908152602001600020600301549050919050565b60008060009054906101000a900473ffffffffffffffffffffffffffffffffffffffff1673ffffffffffffffffffffffffffffffffffffffff163373ffffffffffffffffffffffffffffffffffffffff16146123b857600080fd5b600454905090565b60606007600083815260200190815260200160002060010180546123e390612e93565b80601f016020809104026020016040519081016040528092919081815260200182805461240f90612e93565b801561245c5780601f106124315761010080835404028352916020019161245c565b820191906000526020600020905b81548152906001019060200180831161243f57829003601f168201915b50505050509050919050565b60008060009054906101000a900473ffffffffffffffffffffffffffffffffffffffff1673ffffffffffffffffffffffffffffffffffffffff163373ffffffffffffffffffffffffffffffffffffffff16146124c357600080fd5b600860008373ffffffffffffffffffffffffffffffffffffffff1673ffffffffffffffffffffffffffffffffffffffff16815260200190815260200160002060070160009054906101000a900460ff169050919050565b60008060009054906101000a900473ffffffffffffffffffffffffffffffffffffffff1673ffffffffffffffffffffffffffffffffffffffff163373ffffffffffffffffffffffffffffffffffffffff161461257557600080fd5b600982815481106125af577f4e487b7100000000000000000000000000000000000000000000000000000000600052603260045260246000fd5b9060005260206000209060080201600601549050919050565b60008060009054906101000a900473ffffffffffffffffffffffffffffffffffffffff1673ffffffffffffffffffffffffffffffffffffffff163373ffffffffffffffffffffffffffffffffffffffff161461262357600080fd5b6009828154811061265d577f4e487b7100000000000000000000000000000000000000000000000000000000600052603260045260246000fd5b906000526020600020906008020160010160009054906101000a900473ffffffffffffffffffffffffffffffffffffffff169050919050565b60035481565b606060008054906101000a900473ffffffffffffffffffffffffffffffffffffffff1673ffffffffffffffffffffffffffffffffffffffff163373ffffffffffffffffffffffffffffffffffffffff16146126f657600080fd5b60066000838152602001908152602001600020600401805461271790612e93565b80601f016020809104026020016040519081016040528092919081815260200182805461274390612e93565b80156127905780601f1061276557610100808354040283529160200191612790565b820191906000526020600020905b81548152906001019060200180831161277357829003601f168201915b50505050509050919050565b6000600860008373ffffffffffffffffffffffffffffffffffffffff1673ffffffffffffffffffffffffffffffffffffffff16815260200190815260200160002060010160009054906101000a900473ffffffffffffffffffffffffffffffffffffffff169050919050565b60008060009054906101000a900473ffffffffffffffffffffffffffffffffffffffff1673ffffffffffffffffffffffffffffffffffffffff163373ffffffffffffffffffffffffffffffffffffffff161461286357600080fd5b60066000838152602001908152602001600020600601549050919050565b82805461288d90612e93565b90600052602060002090601f0160209004810192826128af57600085556128f6565b82601f106128c857805160ff19168380011785556128f6565b828001600101855582156128f6579182015b828111156128f55782518255916020019190600101906128da565b5b5090506129039190612907565b5090565b5b80821115612920576000816000905550600101612908565b5090565b600061293761293284612d67565b612d36565b90508281526020810184848401111561294f57600080fd5b61295a848285612e51565b509392505050565b60008135905061297181612fac565b92915050565b600082601f83011261298857600080fd5b8135612998848260208601612924565b91505092915050565b6000813590506129b081612fc3565b92915050565b6000602082840312156129c857600080fd5b60006129d684828501612962565b91505092915050565b60008060008060008060c087890312156129f857600080fd5b6000612a0689828a01612962565b965050602087013567ffffffffffffffff811115612a2357600080fd5b612a2f89828a01612977565b955050604087013567ffffffffffffffff811115612a4c57600080fd5b612a5889828a01612977565b945050606087013567ffffffffffffffff811115612a7557600080fd5b612a8189828a01612977565b935050608087013567ffffffffffffffff811115612a9e57600080fd5b612aaa89828a01612977565b92505060a0612abb89828a016129a1565b9150509295509295509295565b600060208284031215612ada57600080fd5b600082013567ffffffffffffffff811115612af457600080fd5b612b0084828501612977565b91505092915050565b600080600080600060a08688031215612b2157600080fd5b600086013567ffffffffffffffff811115612b3b57600080fd5b612b4788828901612977565b955050602086013567ffffffffffffffff811115612b6457600080fd5b612b7088828901612977565b945050604086013567ffffffffffffffff811115612b8d57600080fd5b612b9988828901612977565b935050606086013567ffffffffffffffff811115612bb657600080fd5b612bc288828901612977565b925050608086013567ffffffffffffffff811115612bdf57600080fd5b612beb88828901612977565b9150509295509295909350565b600060208284031215612c0a57600080fd5b6000612c18848285016129a1565b91505092915050565b60008060408385031215612c3457600080fd5b6000612c42858286016129a1565b9250506020612c53858286016129a1565b9150509250929050565b612c6681612e09565b82525050565b612c7581612e1b565b82525050565b6000612c8682612d97565b612c908185612da2565b9350612ca0818560208601612e60565b612ca981612f9b565b840191505092915050565b612cbd81612e47565b82525050565b6000602082019050612cd86000830184612c5d565b92915050565b6000602082019050612cf36000830184612c6c565b92915050565b60006020820190508181036000830152612d138184612c7b565b905092915050565b6000602082019050612d306000830184612cb4565b92915050565b6000604051905081810181811067ffffffffffffffff82111715612d5d57612d5c612f6c565b5b8060405250919050565b600067ffffffffffffffff821115612d8257612d81612f6c565b5b601f19601f8301169050602081019050919050565b600081519050919050565b600082825260208201905092915050565b6000612dbe82612e47565b9150612dc983612e47565b9250827fffffffffffffffffffffffffffffffffffffffffffffffffffffffffffffffff03821115612dfe57612dfd612f0e565b5b828201905092915050565b6000612e1482612e27565b9050919050565b60008115159050919050565b600073ffffffffffffffffffffffffffffffffffffffff82169050919050565b6000819050919050565b82818337600083830152505050565b60005b83811015612e7e578082015181840152602081019050612e63565b83811115612e8d576000848401525b50505050565b60006002820490506001821680612eab57607f821691505b60208210811415612ebf57612ebe612f3d565b5b50919050565b6000612ed082612e47565b91507fffffffffffffffffffffffffffffffffffffffffffffffffffffffffffffffff821415612f0357612f02612f0e565b5b600182019050919050565b7f4e487b7100000000000000000000000000000000000000000000000000000000600052601160045260246000fd5b7f4e487b7100000000000000000000000000000000000000000000000000000000600052602260045260246000fd5b7f4e487b7100000000000000000000000000000000000000000000000000000000600052604160045260246000fd5b6000601f19601f8301169050919050565b612fb581612e09565b8114612fc057600080fd5b50565b612fcc81612e47565b8114612fd757600080fd5b5056fea2646970667358221220dea01ecd6ffeec85dfd17b14727527590e1517d6fa6eabe30adba83d8caf40ed64736f6c63430008000033",
  "immutableReferences": {},
  "source": "// SPDX-License-Identifier: GPL-3.0\r\npragma solidity ^0.8.0;\r\n\r\ncontract Election {\r\n    address admin;\r\n    uint256 public candidateCount;\r\n    uint256 public voterCount;\r\n    uint256 public proposalCount;\r\n    uint256 electionStart;\r\n    uint256 electionEnd;\r\n\r\n    struct Candidate {\r\n        uint256 candidateID;\r\n        string image;\r\n        string pdfLink;\r\n        string candidateNameAndSurname;\r\n        string slogan;\r\n        string party;\r\n        uint256 voteCount;\r\n    }\r\n\r\n    struct Proposal {\r\n        uint256 proposalID;\r\n        string title;\r\n        uint256 voteCountPos;\r\n        uint256 voteCountNeg;\r\n    }\r\n\r\n    struct Voter {\r\n        uint256 voterID;\r\n        address voterAddress;\r\n        string voterPrivateKey;\r\n        string voterImage;\r\n        string voterNameAndSurname;\r\n        string voterLocation;\r\n        uint256 voterAge;\r\n        bool voted;\r\n        bool proposalVoted;\r\n    }\r\n\r\n    modifier onlyAdmin() {\r\n        require(msg.sender == admin);\r\n        _;\r\n    }\r\n\r\n    mapping(uint256 => Candidate) candidates;\r\n    mapping(uint256 => Proposal) proposals;\r\n    mapping(address => Voter) voters;\r\n    Voter[] voterRegister;\r\n\r\n    event CreatedProposalEvent();\r\n    event CreatedVoteEvent();\r\n\r\n    constructor() public {\r\n        admin = 0x5Fcb3aa65034746Ea3872C9790d0E291a0B49cCD;\r\n        candidateCount = 0;\r\n        voterCount = 0;\r\n        proposalCount = 0;\r\n    }\r\n\r\n    function insertVoter(\r\n        address voterAddress,\r\n        string memory voterPrivateKey,\r\n        string memory voterImage,\r\n        string memory voterNameAndSurname,\r\n        string memory voterLocation,\r\n        uint256 voterAge\r\n    ) public payable onlyAdmin {\r\n        Voter memory newVoter = Voter({\r\n            voterID: voterCount,\r\n            voterAddress: voterAddress,\r\n            voterPrivateKey: voterPrivateKey,\r\n            voterImage: voterImage,\r\n            voterNameAndSurname: voterNameAndSurname,\r\n            voterLocation: voterLocation,\r\n            voterAge: voterAge,\r\n            voted: false,\r\n            proposalVoted: false\r\n        });\r\n\r\n        voterRegister.push(newVoter);\r\n        voters[voterAddress] = newVoter;\r\n        voterCount++;\r\n    }\r\n\r\n    function getVoterIndexByAddress(address voterAddress)\r\n        public\r\n        view\r\n        returns (uint256)\r\n    {\r\n        return voters[voterAddress].voterID;\r\n    }\r\n\r\n    function getVoterNameAndSurnameByAddress(address voterAddress)\r\n        public\r\n        view\r\n        returns (string memory)\r\n    {\r\n        return voters[voterAddress].voterNameAndSurname;\r\n    }\r\n\r\n    function getVoterAddressByAddress(address voterAddress)\r\n        public\r\n        view\r\n        returns (address)\r\n    {\r\n        return voters[voterAddress].voterAddress;\r\n    }\r\n\r\n    function getVoterImageByAddress(address voterAddress)\r\n        public\r\n        view\r\n        returns (string memory)\r\n    {\r\n        return voters[voterAddress].voterImage;\r\n    }\r\n\r\n    function getVoterLocationByAddress(address voterAddress)\r\n        public\r\n        view\r\n        returns (string memory)\r\n    {\r\n        return voters[voterAddress].voterLocation;\r\n    }\r\n\r\n    function getVoterAgeByAddress(address voterAddress)\r\n        public\r\n        view\r\n        returns (uint256)\r\n    {\r\n        return voters[voterAddress].voterAge;\r\n    }\r\n\r\n    function getVoterVoteStatusByAddress(address voterAddress)\r\n        public\r\n        view\r\n        onlyAdmin\r\n        returns (bool)\r\n    {\r\n        return voters[voterAddress].voted;\r\n    }\r\n\r\n    function getVoterVoteReferendumStatusByAddress(address voterAddress)\r\n        public\r\n        view\r\n        onlyAdmin\r\n        returns (bool)\r\n    {\r\n        return voters[voterAddress].proposalVoted;\r\n    }\r\n\r\n    function getVoterPrivateKey(uint256 index)\r\n        public\r\n        view\r\n        onlyAdmin\r\n        returns (string memory)\r\n    {\r\n        return voterRegister[index].voterPrivateKey;\r\n    }\r\n\r\n    function getVoterVoteStatus(uint256 index)\r\n        public\r\n        view\r\n        onlyAdmin\r\n        returns (bool)\r\n    {\r\n        return voterRegister[index].voted;\r\n    }\r\n\r\n    function getVoterVoteReferendumStatus(uint256 index)\r\n        public\r\n        view\r\n        onlyAdmin\r\n        returns (bool)\r\n    {\r\n        return voterRegister[index].proposalVoted;\r\n    }\r\n\r\n    function getVoterAddress(uint256 index)\r\n        public\r\n        view\r\n        onlyAdmin\r\n        returns (address)\r\n    {\r\n        return voterRegister[index].voterAddress;\r\n    }\r\n\r\n    function getVoterNameAndSurname(uint256 index)\r\n        public\r\n        view\r\n        onlyAdmin\r\n        returns (string memory)\r\n    {\r\n        return voterRegister[index].voterNameAndSurname;\r\n    }\r\n\r\n    function getVoterImage(uint256 index)\r\n        public\r\n        view\r\n        onlyAdmin\r\n        returns (string memory)\r\n    {\r\n        return voterRegister[index].voterImage;\r\n    }\r\n\r\n    function getVoterLocation(uint256 index)\r\n        public\r\n        view\r\n        onlyAdmin\r\n        returns (string memory)\r\n    {\r\n        return voterRegister[index].voterLocation;\r\n    }\r\n\r\n    function getVoterAge(uint256 index)\r\n        public\r\n        view\r\n        onlyAdmin\r\n        returns (uint256)\r\n    {\r\n        return voterRegister[index].voterAge;\r\n    }\r\n\r\n    function getVoterCount() public view onlyAdmin returns (uint256 count) {\r\n        return voterCount;\r\n    }\r\n\r\n    function addCandidate(\r\n        string memory _image,\r\n        string memory _pdfLink,\r\n        string memory _nameAndSurname,\r\n        string memory _slogan,\r\n        string memory _party\r\n    ) public onlyAdmin {\r\n        Candidate memory newCandidate = Candidate({\r\n            candidateID: candidateCount,\r\n            image: _image,\r\n            pdfLink: _pdfLink,\r\n            candidateNameAndSurname: _nameAndSurname,\r\n            slogan: _slogan,\r\n            party: _party,\r\n            voteCount: 0\r\n        });\r\n\r\n        candidates[candidateCount] = newCandidate;\r\n        candidateCount++;\r\n    }\r\n\r\n    function getImage(uint256 index)\r\n        public\r\n        view\r\n        onlyAdmin\r\n        returns (string memory)\r\n    {\r\n        return candidates[index].image;\r\n    }\r\n\r\n    function getPdfLink(uint256 index)\r\n        public\r\n        view\r\n        onlyAdmin\r\n        returns (string memory)\r\n    {\r\n        return candidates[index].pdfLink;\r\n    }\r\n\r\n    function getCandidate(uint256 index)\r\n        public\r\n        view\r\n        onlyAdmin\r\n        returns (string memory)\r\n    {\r\n        return candidates[index].candidateNameAndSurname;\r\n    }\r\n\r\n    function getSlogan(uint256 index)\r\n        public\r\n        view\r\n        onlyAdmin\r\n        returns (string memory)\r\n    {\r\n        return candidates[index].slogan;\r\n    }\r\n\r\n    function getParty(uint256 index)\r\n        public\r\n        view\r\n        onlyAdmin\r\n        returns (string memory)\r\n    {\r\n        return candidates[index].party;\r\n    }\r\n\r\n    function getVotes(uint256 index) public view onlyAdmin returns (uint256) {\r\n        return candidates[index].voteCount;\r\n    }\r\n\r\n    function setStartEndTime(uint256 _start, uint256 _end) public onlyAdmin {\r\n        electionStart = _start;\r\n        electionEnd = _end;\r\n    }\r\n\r\n    function getStartTime() public view onlyAdmin returns (uint256) {\r\n        return electionStart;\r\n    }\r\n\r\n    function getEndTime() public view onlyAdmin returns (uint256) {\r\n        return electionEnd;\r\n    }\r\n\r\n    function addProposal(string memory title) public onlyAdmin {\r\n        Proposal memory newProposal = Proposal({\r\n            proposalID: proposalCount,\r\n            title: title,\r\n            voteCountPos: 0,\r\n            voteCountNeg: 0\r\n        });\r\n        proposals[proposalCount] = newProposal;\r\n        proposalCount++;\r\n    }\r\n\r\n    function getProposalTitle(uint256 index)\r\n        public\r\n        view\r\n        returns (string memory)\r\n    {\r\n        return proposals[index].title;\r\n    }\r\n\r\n    function getProposalPos(uint256 index) public view returns (uint256) {\r\n        return proposals[index].voteCountPos;\r\n    }\r\n\r\n    function getProposalNeg(uint256 index) public view returns (uint256) {\r\n        return proposals[index].voteCountNeg;\r\n    }\r\n\r\n    function vote(uint256 candidateID) public {\r\n        require(block.timestamp >= electionStart);\r\n        require(block.timestamp <= electionEnd);\r\n        require(msg.sender != admin);\r\n        require(voters[msg.sender].voted == false);\r\n        candidates[candidateID].voteCount++;\r\n        voters[msg.sender].voted = true;\r\n        voterRegister[getVoterIndexByAddress(msg.sender)].voted = true;\r\n    }\r\n\r\n    function voteProposal(uint256 voteValue) public {\r\n        require(block.timestamp >= electionStart);\r\n        require(block.timestamp <= electionEnd);\r\n        require(msg.sender != admin);\r\n        require(voters[msg.sender].proposalVoted == false);\r\n        require(voteValue == 1 || voteValue == 2 || voteValue == 3);\r\n        if (voteValue == 1) {\r\n            proposals[0].voteCountPos += 1;\r\n        } else if (voteValue == 2) {\r\n            proposals[0].voteCountNeg += 1;\r\n        }\r\n        voters[msg.sender].proposalVoted = true;\r\n        voterRegister[getVoterIndexByAddress(msg.sender)].proposalVoted = true;\r\n    }\r\n}\r\n",
  "sourcePath": "C:\\Users\\Stefan Gjurcheski\\Desktop\\Dipl\\Ethereum Voting System\\contracts\\Election.sol",
  "compiler": {
    "name": "solc",
    "version": "0.8.0+commit.c7dfd78e.Emscripten.clang"
  },
  "schemaVersion": "3.4.3",
  "updatedAt": "2021-12-18T18:16:03.465Z",
  "networkType": "ethereum",
  "devdoc": {
    "kind": "dev",
    "methods": {},
    "version": 1
  },
  "userdoc": {
    "kind": "user",
    "methods": {},
    "version": 1
  }
}